{
  "contractName": "tcg",
  "abi": [
    {
      "inputs": [],
      "stateMutability": "nonpayable",
      "type": "constructor"
    },
    {
      "anonymous": false,
      "inputs": [
        {
          "indexed": true,
          "internalType": "address",
          "name": "owner",
          "type": "address"
        },
        {
          "indexed": true,
          "internalType": "address",
          "name": "approved",
          "type": "address"
        },
        {
          "indexed": true,
          "internalType": "uint256",
          "name": "tokenId",
          "type": "uint256"
        }
      ],
      "name": "Approval",
      "type": "event"
    },
    {
      "anonymous": false,
      "inputs": [
        {
          "indexed": true,
          "internalType": "address",
          "name": "owner",
          "type": "address"
        },
        {
          "indexed": true,
          "internalType": "address",
          "name": "operator",
          "type": "address"
        },
        {
          "indexed": false,
          "internalType": "bool",
          "name": "approved",
          "type": "bool"
        }
      ],
      "name": "ApprovalForAll",
      "type": "event"
    },
    {
      "anonymous": false,
      "inputs": [
        {
          "indexed": true,
          "internalType": "address",
          "name": "from",
          "type": "address"
        },
        {
          "indexed": true,
          "internalType": "address",
          "name": "to",
          "type": "address"
        },
        {
          "indexed": true,
          "internalType": "uint256",
          "name": "tokenId",
          "type": "uint256"
        }
      ],
      "name": "Transfer",
      "type": "event"
    },
    {
      "inputs": [
        {
          "internalType": "address",
          "name": "to",
          "type": "address"
        },
        {
          "internalType": "uint256",
          "name": "tokenId",
          "type": "uint256"
        }
      ],
      "name": "approve",
      "outputs": [],
      "stateMutability": "nonpayable",
      "type": "function"
    },
    {
      "inputs": [
        {
          "internalType": "address",
          "name": "owner",
          "type": "address"
        }
      ],
      "name": "balanceOf",
      "outputs": [
        {
          "internalType": "uint256",
          "name": "",
          "type": "uint256"
        }
      ],
      "stateMutability": "view",
      "type": "function"
    },
    {
      "inputs": [
        {
          "internalType": "uint256",
          "name": "",
          "type": "uint256"
        }
      ],
      "name": "cardIndex",
      "outputs": [
        {
          "internalType": "uint256",
          "name": "",
          "type": "uint256"
        }
      ],
      "stateMutability": "view",
      "type": "function"
    },
    {
      "inputs": [
        {
          "internalType": "uint256",
          "name": "tokenId",
          "type": "uint256"
        }
      ],
      "name": "getApproved",
      "outputs": [
        {
          "internalType": "address",
          "name": "",
          "type": "address"
        }
      ],
      "stateMutability": "view",
      "type": "function"
    },
    {
      "inputs": [
        {
          "internalType": "address",
          "name": "owner",
          "type": "address"
        },
        {
          "internalType": "address",
          "name": "operator",
          "type": "address"
        }
      ],
      "name": "isApprovedForAll",
      "outputs": [
        {
          "internalType": "bool",
          "name": "",
          "type": "bool"
        }
      ],
      "stateMutability": "view",
      "type": "function"
    },
    {
      "inputs": [],
      "name": "name",
      "outputs": [
        {
          "internalType": "string",
          "name": "",
          "type": "string"
        }
      ],
      "stateMutability": "view",
      "type": "function"
    },
    {
      "inputs": [
        {
          "internalType": "uint256",
          "name": "tokenId",
          "type": "uint256"
        }
      ],
      "name": "ownerOf",
      "outputs": [
        {
          "internalType": "address",
          "name": "",
          "type": "address"
        }
      ],
      "stateMutability": "view",
      "type": "function"
    },
    {
      "inputs": [
        {
          "internalType": "address",
          "name": "from",
          "type": "address"
        },
        {
          "internalType": "address",
          "name": "to",
          "type": "address"
        },
        {
          "internalType": "uint256",
          "name": "tokenId",
          "type": "uint256"
        }
      ],
      "name": "safeTransferFrom",
      "outputs": [],
      "stateMutability": "nonpayable",
      "type": "function"
    },
    {
      "inputs": [
        {
          "internalType": "address",
          "name": "from",
          "type": "address"
        },
        {
          "internalType": "address",
          "name": "to",
          "type": "address"
        },
        {
          "internalType": "uint256",
          "name": "tokenId",
          "type": "uint256"
        },
        {
          "internalType": "bytes",
          "name": "_data",
          "type": "bytes"
        }
      ],
      "name": "safeTransferFrom",
      "outputs": [],
      "stateMutability": "nonpayable",
      "type": "function"
    },
    {
      "inputs": [
        {
          "internalType": "address",
          "name": "operator",
          "type": "address"
        },
        {
          "internalType": "bool",
          "name": "approved",
          "type": "bool"
        }
      ],
      "name": "setApprovalForAll",
      "outputs": [],
      "stateMutability": "nonpayable",
      "type": "function"
    },
    {
      "inputs": [
        {
          "internalType": "bytes4",
          "name": "interfaceId",
          "type": "bytes4"
        }
      ],
      "name": "supportsInterface",
      "outputs": [
        {
          "internalType": "bool",
          "name": "",
          "type": "bool"
        }
      ],
      "stateMutability": "view",
      "type": "function"
    },
    {
      "inputs": [],
      "name": "symbol",
      "outputs": [
        {
          "internalType": "string",
          "name": "",
          "type": "string"
        }
      ],
      "stateMutability": "view",
      "type": "function"
    },
    {
      "inputs": [
        {
          "internalType": "uint256",
          "name": "tokenId",
          "type": "uint256"
        }
      ],
      "name": "tokenURI",
      "outputs": [
        {
          "internalType": "string",
          "name": "",
          "type": "string"
        }
      ],
      "stateMutability": "view",
      "type": "function"
    },
    {
      "inputs": [
        {
          "internalType": "address",
          "name": "from",
          "type": "address"
        },
        {
          "internalType": "address",
          "name": "to",
          "type": "address"
        },
        {
          "internalType": "uint256",
          "name": "tokenId",
          "type": "uint256"
        }
      ],
      "name": "transferFrom",
      "outputs": [],
      "stateMutability": "nonpayable",
      "type": "function"
    },
    {
      "inputs": [
        {
          "internalType": "address",
          "name": "",
          "type": "address"
        },
        {
          "internalType": "uint256",
          "name": "",
          "type": "uint256"
        }
      ],
      "name": "userOwnedCards",
      "outputs": [
        {
          "internalType": "uint256",
          "name": "",
          "type": "uint256"
        }
      ],
      "stateMutability": "view",
      "type": "function"
    },
    {
      "inputs": [
        {
          "internalType": "string",
          "name": "_tokenURI",
          "type": "string"
        }
      ],
      "name": "createCard",
      "outputs": [
        {
          "internalType": "uint256",
          "name": "",
          "type": "uint256"
        }
      ],
      "stateMutability": "nonpayable",
      "type": "function"
    }
  ],
  "bytecode": "0x60806040523480156200001157600080fd5b506040518060400160405280600b81526020017f54726164696e67436172640000000000000000000000000000000000000000008152506040518060400160405280600381526020017f54434700000000000000000000000000000000000000000000000000000000008152508160009080519060200190620000969291906200011a565b508060019080519060200190620000af9291906200011a565b505050620000f86040518060400160405280600781526020017f697066733a2f2f00000000000000000000000000000000000000000000000000815250620000fe60201b60201c565b6200022f565b8060089080519060200190620001169291906200011a565b5050565b8280546200012890620001f9565b90600052602060002090601f0160209004810192826200014c576000855562000198565b82601f106200016757805160ff191683800117855562000198565b8280016001018555821562000198579182015b82811115620001975782518255916020019190600101906200017a565b5b509050620001a79190620001ab565b5090565b5b80821115620001c6576000816000905550600101620001ac565b5090565b7f4e487b7100000000000000000000000000000000000000000000000000000000600052602260045260246000fd5b600060028204905060018216806200021257607f821691505b60208210811415620002295762000228620001ca565b5b50919050565b612e08806200023f6000396000f3fe608060405234801561001057600080fd5b50600436106101005760003560e01c806370a0823111610097578063b88d4fde11610066578063b88d4fde146102d1578063c87b56dd146102ed578063ca89f4e41461031d578063e985e9c51461034d57610100565b806370a082311461023757806395d89b41146102675780639b3ce46e14610285578063a22cb465146102b557610100565b806323b872dd116100d357806323b872dd1461019f57806342842e0e146101bb57806346a672bd146101d75780636352211e1461020757610100565b806301ffc9a71461010557806306fdde0314610135578063081812fc14610153578063095ea7b314610183575b600080fd5b61011f600480360381019061011a9190611b7d565b61037d565b60405161012c9190611bc5565b60405180910390f35b61013d61045f565b60405161014a9190611c79565b60405180910390f35b61016d60048036038101906101689190611cd1565b6104f1565b60405161017a9190611d3f565b60405180910390f35b61019d60048036038101906101989190611d86565b610576565b005b6101b960048036038101906101b49190611dc6565b61068e565b005b6101d560048036038101906101d09190611dc6565b6106ee565b005b6101f160048036038101906101ec9190611f4e565b61070e565b6040516101fe9190611fa6565b60405180910390f35b610221600480360381019061021c9190611cd1565b61080b565b60405161022e9190611d3f565b60405180910390f35b610251600480360381019061024c9190611fc1565b6108bd565b60405161025e9190611fa6565b60405180910390f35b61026f610975565b60405161027c9190611c79565b60405180910390f35b61029f600480360381019061029a9190611d86565b610a07565b6040516102ac9190611fa6565b60405180910390f35b6102cf60048036038101906102ca919061201a565b610a38565b005b6102eb60048036038101906102e691906120fb565b610bb9565b005b61030760048036038101906103029190611cd1565b610c1b565b6040516103149190611c79565b60405180910390f35b61033760048036038101906103329190611cd1565b610d6d565b6040516103449190611fa6565b60405180910390f35b6103676004803603810190610362919061217e565b610d85565b6040516103749190611bc5565b60405180910390f35b60007f80ac58cd000000000000000000000000000000000000000000000000000000007bffffffffffffffffffffffffffffffffffffffffffffffffffffffff1916827bffffffffffffffffffffffffffffffffffffffffffffffffffffffff1916148061044857507f5b5e139f000000000000000000000000000000000000000000000000000000007bffffffffffffffffffffffffffffffffffffffffffffffffffffffff1916827bffffffffffffffffffffffffffffffffffffffffffffffffffffffff1916145b80610458575061045782610e19565b5b9050919050565b60606000805461046e906121ed565b80601f016020809104026020016040519081016040528092919081815260200182805461049a906121ed565b80156104e75780601f106104bc576101008083540402835291602001916104e7565b820191906000526020600020905b8154815290600101906020018083116104ca57829003601f168201915b5050505050905090565b60006104fc82610e83565b61053b576040517f08c379a000000000000000000000000000000000000000000000000000000000815260040161053290612291565b60405180910390fd5b6004600083815260200190815260200160002060009054906101000a900473ffffffffffffffffffffffffffffffffffffffff169050919050565b60006105818261080b565b90508073ffffffffffffffffffffffffffffffffffffffff168373ffffffffffffffffffffffffffffffffffffffff1614156105f2576040517f08c379a00000000000000000000000000000000000000000000000000000000081526004016105e990612323565b60405180910390fd5b8073ffffffffffffffffffffffffffffffffffffffff16610611610eef565b73ffffffffffffffffffffffffffffffffffffffff161480610640575061063f8161063a610eef565b610d85565b5b61067f576040517f08c379a0000000000000000000000000000000000000000000000000000000008152600401610676906123b5565b60405180910390fd5b6106898383610ef7565b505050565b61069f610699610eef565b82610fb0565b6106de576040517f08c379a00000000000000000000000000000000000000000000000000000000081526004016106d590612447565b60405180910390fd5b6106e983838361108e565b505050565b61070983838360405180602001604052806000815250610bb9565b505050565b600061071a60076112ea565b60006107266007611300565b9050600960003373ffffffffffffffffffffffffffffffffffffffff1673ffffffffffffffffffffffffffffffffffffffff1681526020019081526020016000208190806001815401808255809150506001900390600052602060002001600090919091909150556000600960003373ffffffffffffffffffffffffffffffffffffffff1673ffffffffffffffffffffffffffffffffffffffff16815260200190815260200160002080549050905080600a6000848152602001908152602001600020819055506107f7338361130e565b610801828561132c565b8192505050919050565b6000806002600084815260200190815260200160002060009054906101000a900473ffffffffffffffffffffffffffffffffffffffff169050600073ffffffffffffffffffffffffffffffffffffffff168173ffffffffffffffffffffffffffffffffffffffff1614156108b4576040517f08c379a00000000000000000000000000000000000000000000000000000000081526004016108ab906124d9565b60405180910390fd5b80915050919050565b60008073ffffffffffffffffffffffffffffffffffffffff168273ffffffffffffffffffffffffffffffffffffffff16141561092e576040517f08c379a00000000000000000000000000000000000000000000000000000000081526004016109259061256b565b60405180910390fd5b600360008373ffffffffffffffffffffffffffffffffffffffff1673ffffffffffffffffffffffffffffffffffffffff168152602001908152602001600020549050919050565b606060018054610984906121ed565b80601f01602080910402602001604051908101604052809291908181526020018280546109b0906121ed565b80156109fd5780601f106109d2576101008083540402835291602001916109fd565b820191906000526020600020905b8154815290600101906020018083116109e057829003601f168201915b5050505050905090565b60096020528160005260406000208181548110610a2357600080fd5b90600052602060002001600091509150505481565b610a40610eef565b73ffffffffffffffffffffffffffffffffffffffff168273ffffffffffffffffffffffffffffffffffffffff161415610aae576040517f08c379a0000000000000000000000000000000000000000000000000000000008152600401610aa5906125d7565b60405180910390fd5b8060056000610abb610eef565b73ffffffffffffffffffffffffffffffffffffffff1673ffffffffffffffffffffffffffffffffffffffff16815260200190815260200160002060008473ffffffffffffffffffffffffffffffffffffffff1673ffffffffffffffffffffffffffffffffffffffff16815260200190815260200160002060006101000a81548160ff0219169083151502179055508173ffffffffffffffffffffffffffffffffffffffff16610b68610eef565b73ffffffffffffffffffffffffffffffffffffffff167f17307eab39ab6107e8899845ad3d59bd9653f200f220920489ca2b5937696c3183604051610bad9190611bc5565b60405180910390a35050565b610bca610bc4610eef565b83610fb0565b610c09576040517f08c379a0000000000000000000000000000000000000000000000000000000008152600401610c0090612447565b60405180910390fd5b610c15848484846113a0565b50505050565b6060610c2682610e83565b610c65576040517f08c379a0000000000000000000000000000000000000000000000000000000008152600401610c5c90612669565b60405180910390fd5b6000600660008481526020019081526020016000208054610c85906121ed565b80601f0160208091040260200160405190810160405280929190818152602001828054610cb1906121ed565b8015610cfe5780601f10610cd357610100808354040283529160200191610cfe565b820191906000526020600020905b815481529060010190602001808311610ce157829003601f168201915b505050505090506000610d0f6113fc565b9050600081511415610d25578192505050610d68565b600082511115610d5a578082604051602001610d429291906126c5565b60405160208183030381529060405292505050610d68565b610d638461148e565b925050505b919050565b600a6020528060005260406000206000915090505481565b6000600560008473ffffffffffffffffffffffffffffffffffffffff1673ffffffffffffffffffffffffffffffffffffffff16815260200190815260200160002060008373ffffffffffffffffffffffffffffffffffffffff1673ffffffffffffffffffffffffffffffffffffffff16815260200190815260200160002060009054906101000a900460ff16905092915050565b60007f01ffc9a7000000000000000000000000000000000000000000000000000000007bffffffffffffffffffffffffffffffffffffffffffffffffffffffff1916827bffffffffffffffffffffffffffffffffffffffffffffffffffffffff1916149050919050565b60008073ffffffffffffffffffffffffffffffffffffffff166002600084815260200190815260200160002060009054906101000a900473ffffffffffffffffffffffffffffffffffffffff1673ffffffffffffffffffffffffffffffffffffffff1614159050919050565b600033905090565b816004600083815260200190815260200160002060006101000a81548173ffffffffffffffffffffffffffffffffffffffff021916908373ffffffffffffffffffffffffffffffffffffffff160217905550808273ffffffffffffffffffffffffffffffffffffffff16610f6a8361080b565b73ffffffffffffffffffffffffffffffffffffffff167f8c5be1e5ebec7d5bd14f71427d1e84f3dd0314c0f7b2291e5b200ac8c7c3b92560405160405180910390a45050565b6000610fbb82610e83565b610ffa576040517f08c379a0000000000000000000000000000000000000000000000000000000008152600401610ff19061275b565b60405180910390fd5b60006110058361080b565b90508073ffffffffffffffffffffffffffffffffffffffff168473ffffffffffffffffffffffffffffffffffffffff16148061107457508373ffffffffffffffffffffffffffffffffffffffff1661105c846104f1565b73ffffffffffffffffffffffffffffffffffffffff16145b8061108557506110848185610d85565b5b91505092915050565b8273ffffffffffffffffffffffffffffffffffffffff166110ae8261080b565b73ffffffffffffffffffffffffffffffffffffffff1614611104576040517f08c379a00000000000000000000000000000000000000000000000000000000081526004016110fb906127ed565b60405180910390fd5b600073ffffffffffffffffffffffffffffffffffffffff168273ffffffffffffffffffffffffffffffffffffffff161415611174576040517f08c379a000000000000000000000000000000000000000000000000000000000815260040161116b9061287f565b60405180910390fd5b61117f838383611535565b61118a600082610ef7565b6001600360008573ffffffffffffffffffffffffffffffffffffffff1673ffffffffffffffffffffffffffffffffffffffff16815260200190815260200160002060008282546111da91906128ce565b925050819055506001600360008473ffffffffffffffffffffffffffffffffffffffff1673ffffffffffffffffffffffffffffffffffffffff16815260200190815260200160002060008282546112319190612902565b92505081905550816002600083815260200190815260200160002060006101000a81548173ffffffffffffffffffffffffffffffffffffffff021916908373ffffffffffffffffffffffffffffffffffffffff160217905550808273ffffffffffffffffffffffffffffffffffffffff168473ffffffffffffffffffffffffffffffffffffffff167fddf252ad1be2c89b69c2b068fc378daa952ba7f163c4a11628f55a4df523b3ef60405160405180910390a4505050565b6001816000016000828254019250508190555050565b600081600001549050919050565b61132882826040518060200160405280600081525061153a565b5050565b61133582610e83565b611374576040517f08c379a000000000000000000000000000000000000000000000000000000000815260040161136b906129ca565b60405180910390fd5b8060066000848152602001908152602001600020908051906020019061139b929190611a6e565b505050565b6113ab84848461108e565b6113b784848484611595565b6113f6576040517f08c379a00000000000000000000000000000000000000000000000000000000081526004016113ed90612a5c565b60405180910390fd5b50505050565b60606008805461140b906121ed565b80601f0160208091040260200160405190810160405280929190818152602001828054611437906121ed565b80156114845780601f1061145957610100808354040283529160200191611484565b820191906000526020600020905b81548152906001019060200180831161146757829003601f168201915b5050505050905090565b606061149982610e83565b6114d8576040517f08c379a00000000000000000000000000000000000000000000000000000000081526004016114cf90612aee565b60405180910390fd5b60006114e26113fc565b90506000815111611502576040518060200160405280600081525061152d565b8061150c8461172c565b60405160200161151d9291906126c5565b6040516020818303038152906040525b915050919050565b505050565b611544838361188d565b6115516000848484611595565b611590576040517f08c379a000000000000000000000000000000000000000000000000000000000815260040161158790612a5c565b60405180910390fd5b505050565b60006115b68473ffffffffffffffffffffffffffffffffffffffff16611a5b565b1561171f578373ffffffffffffffffffffffffffffffffffffffff1663150b7a026115df610eef565b8786866040518563ffffffff1660e01b81526004016116019493929190612b63565b602060405180830381600087803b15801561161b57600080fd5b505af192505050801561164c57506040513d601f19601f820116820180604052508101906116499190612bc4565b60015b6116cf573d806000811461167c576040519150601f19603f3d011682016040523d82523d6000602084013e611681565b606091505b506000815114156116c7576040517f08c379a00000000000000000000000000000000000000000000000000000000081526004016116be90612a5c565b60405180910390fd5b805181602001fd5b63150b7a0260e01b7bffffffffffffffffffffffffffffffffffffffffffffffffffffffff1916817bffffffffffffffffffffffffffffffffffffffffffffffffffffffff191614915050611724565b600190505b949350505050565b60606000821415611774576040518060400160405280600181526020017f30000000000000000000000000000000000000000000000000000000000000008152509050611888565b600082905060005b600082146117a657808061178f90612bf1565b915050600a8261179f9190612c69565b915061177c565b60008167ffffffffffffffff8111156117c2576117c1611e23565b5b6040519080825280601f01601f1916602001820160405280156117f45781602001600182028036833780820191505090505b5090505b600085146118815760018261180d91906128ce565b9150600a8561181c9190612c9a565b60306118289190612902565b60f81b81838151811061183e5761183d612ccb565b5b60200101907effffffffffffffffffffffffffffffffffffffffffffffffffffffffffffff1916908160001a905350600a8561187a9190612c69565b94506117f8565b8093505050505b919050565b600073ffffffffffffffffffffffffffffffffffffffff168273ffffffffffffffffffffffffffffffffffffffff1614156118fd576040517f08c379a00000000000000000000000000000000000000000000000000000000081526004016118f490612d46565b60405180910390fd5b61190681610e83565b15611946576040517f08c379a000000000000000000000000000000000000000000000000000000000815260040161193d90612db2565b60405180910390fd5b61195260008383611535565b6001600360008473ffffffffffffffffffffffffffffffffffffffff1673ffffffffffffffffffffffffffffffffffffffff16815260200190815260200160002060008282546119a29190612902565b92505081905550816002600083815260200190815260200160002060006101000a81548173ffffffffffffffffffffffffffffffffffffffff021916908373ffffffffffffffffffffffffffffffffffffffff160217905550808273ffffffffffffffffffffffffffffffffffffffff16600073ffffffffffffffffffffffffffffffffffffffff167fddf252ad1be2c89b69c2b068fc378daa952ba7f163c4a11628f55a4df523b3ef60405160405180910390a45050565b600080823b905060008111915050919050565b828054611a7a906121ed565b90600052602060002090601f016020900481019282611a9c5760008555611ae3565b82601f10611ab557805160ff1916838001178555611ae3565b82800160010185558215611ae3579182015b82811115611ae2578251825591602001919060010190611ac7565b5b509050611af09190611af4565b5090565b5b80821115611b0d576000816000905550600101611af5565b5090565b6000604051905090565b600080fd5b600080fd5b60007fffffffff0000000000000000000000000000000000000000000000000000000082169050919050565b611b5a81611b25565b8114611b6557600080fd5b50565b600081359050611b7781611b51565b92915050565b600060208284031215611b9357611b92611b1b565b5b6000611ba184828501611b68565b91505092915050565b60008115159050919050565b611bbf81611baa565b82525050565b6000602082019050611bda6000830184611bb6565b92915050565b600081519050919050565b600082825260208201905092915050565b60005b83811015611c1a578082015181840152602081019050611bff565b83811115611c29576000848401525b50505050565b6000601f19601f8301169050919050565b6000611c4b82611be0565b611c558185611beb565b9350611c65818560208601611bfc565b611c6e81611c2f565b840191505092915050565b60006020820190508181036000830152611c938184611c40565b905092915050565b6000819050919050565b611cae81611c9b565b8114611cb957600080fd5b50565b600081359050611ccb81611ca5565b92915050565b600060208284031215611ce757611ce6611b1b565b5b6000611cf584828501611cbc565b91505092915050565b600073ffffffffffffffffffffffffffffffffffffffff82169050919050565b6000611d2982611cfe565b9050919050565b611d3981611d1e565b82525050565b6000602082019050611d546000830184611d30565b92915050565b611d6381611d1e565b8114611d6e57600080fd5b50565b600081359050611d8081611d5a565b92915050565b60008060408385031215611d9d57611d9c611b1b565b5b6000611dab85828601611d71565b9250506020611dbc85828601611cbc565b9150509250929050565b600080600060608486031215611ddf57611dde611b1b565b5b6000611ded86828701611d71565b9350506020611dfe86828701611d71565b9250506040611e0f86828701611cbc565b9150509250925092565b600080fd5b600080fd5b7f4e487b7100000000000000000000000000000000000000000000000000000000600052604160045260246000fd5b611e5b82611c2f565b810181811067ffffffffffffffff82111715611e7a57611e79611e23565b5b80604052505050565b6000611e8d611b11565b9050611e998282611e52565b919050565b600067ffffffffffffffff821115611eb957611eb8611e23565b5b611ec282611c2f565b9050602081019050919050565b82818337600083830152505050565b6000611ef1611eec84611e9e565b611e83565b905082815260208101848484011115611f0d57611f0c611e1e565b5b611f18848285611ecf565b509392505050565b600082601f830112611f3557611f34611e19565b5b8135611f45848260208601611ede565b91505092915050565b600060208284031215611f6457611f63611b1b565b5b600082013567ffffffffffffffff811115611f8257611f81611b20565b5b611f8e84828501611f20565b91505092915050565b611fa081611c9b565b82525050565b6000602082019050611fbb6000830184611f97565b92915050565b600060208284031215611fd757611fd6611b1b565b5b6000611fe584828501611d71565b91505092915050565b611ff781611baa565b811461200257600080fd5b50565b60008135905061201481611fee565b92915050565b6000806040838503121561203157612030611b1b565b5b600061203f85828601611d71565b925050602061205085828601612005565b9150509250929050565b600067ffffffffffffffff82111561207557612074611e23565b5b61207e82611c2f565b9050602081019050919050565b600061209e6120998461205a565b611e83565b9050828152602081018484840111156120ba576120b9611e1e565b5b6120c5848285611ecf565b509392505050565b600082601f8301126120e2576120e1611e19565b5b81356120f284826020860161208b565b91505092915050565b6000806000806080858703121561211557612114611b1b565b5b600061212387828801611d71565b945050602061213487828801611d71565b935050604061214587828801611cbc565b925050606085013567ffffffffffffffff81111561216657612165611b20565b5b612172878288016120cd565b91505092959194509250565b6000806040838503121561219557612194611b1b565b5b60006121a385828601611d71565b92505060206121b485828601611d71565b9150509250929050565b7f4e487b7100000000000000000000000000000000000000000000000000000000600052602260045260246000fd5b6000600282049050600182168061220557607f821691505b60208210811415612219576122186121be565b5b50919050565b7f4552433732313a20617070726f76656420717565727920666f72206e6f6e657860008201527f697374656e7420746f6b656e0000000000000000000000000000000000000000602082015250565b600061227b602c83611beb565b91506122868261221f565b604082019050919050565b600060208201905081810360008301526122aa8161226e565b9050919050565b7f4552433732313a20617070726f76616c20746f2063757272656e74206f776e6560008201527f7200000000000000000000000000000000000000000000000000000000000000602082015250565b600061230d602183611beb565b9150612318826122b1565b604082019050919050565b6000602082019050818103600083015261233c81612300565b9050919050565b7f4552433732313a20617070726f76652063616c6c6572206973206e6f74206f7760008201527f6e6572206e6f7220617070726f76656420666f7220616c6c0000000000000000602082015250565b600061239f603883611beb565b91506123aa82612343565b604082019050919050565b600060208201905081810360008301526123ce81612392565b9050919050565b7f4552433732313a207472616e736665722063616c6c6572206973206e6f74206f60008201527f776e6572206e6f7220617070726f766564000000000000000000000000000000602082015250565b6000612431603183611beb565b915061243c826123d5565b604082019050919050565b6000602082019050818103600083015261246081612424565b9050919050565b7f4552433732313a206f776e657220717565727920666f72206e6f6e657869737460008201527f656e7420746f6b656e0000000000000000000000000000000000000000000000602082015250565b60006124c3602983611beb565b91506124ce82612467565b604082019050919050565b600060208201905081810360008301526124f2816124b6565b9050919050565b7f4552433732313a2062616c616e636520717565727920666f7220746865207a6560008201527f726f206164647265737300000000000000000000000000000000000000000000602082015250565b6000612555602a83611beb565b9150612560826124f9565b604082019050919050565b6000602082019050818103600083015261258481612548565b9050919050565b7f4552433732313a20617070726f766520746f2063616c6c657200000000000000600082015250565b60006125c1601983611beb565b91506125cc8261258b565b602082019050919050565b600060208201905081810360008301526125f0816125b4565b9050919050565b7f45524337323155524953746f726167653a2055524920717565727920666f722060008201527f6e6f6e6578697374656e7420746f6b656e000000000000000000000000000000602082015250565b6000612653603183611beb565b915061265e826125f7565b604082019050919050565b6000602082019050818103600083015261268281612646565b9050919050565b600081905092915050565b600061269f82611be0565b6126a98185612689565b93506126b9818560208601611bfc565b80840191505092915050565b60006126d18285612694565b91506126dd8284612694565b91508190509392505050565b7f4552433732313a206f70657261746f7220717565727920666f72206e6f6e657860008201527f697374656e7420746f6b656e0000000000000000000000000000000000000000602082015250565b6000612745602c83611beb565b9150612750826126e9565b604082019050919050565b6000602082019050818103600083015261277481612738565b9050919050565b7f4552433732313a207472616e73666572206f6620746f6b656e2074686174206960008201527f73206e6f74206f776e0000000000000000000000000000000000000000000000602082015250565b60006127d7602983611beb565b91506127e28261277b565b604082019050919050565b60006020820190508181036000830152612806816127ca565b9050919050565b7f4552433732313a207472616e7366657220746f20746865207a65726f2061646460008201527f7265737300000000000000000000000000000000000000000000000000000000602082015250565b6000612869602483611beb565b91506128748261280d565b604082019050919050565b600060208201905081810360008301526128988161285c565b9050919050565b7f4e487b7100000000000000000000000000000000000000000000000000000000600052601160045260246000fd5b60006128d982611c9b565b91506128e483611c9b565b9250828210156128f7576128f661289f565b5b828203905092915050565b600061290d82611c9b565b915061291883611c9b565b9250827fffffffffffffffffffffffffffffffffffffffffffffffffffffffffffffffff0382111561294d5761294c61289f565b5b828201905092915050565b7f45524337323155524953746f726167653a2055524920736574206f66206e6f6e60008201527f6578697374656e7420746f6b656e000000000000000000000000000000000000602082015250565b60006129b4602e83611beb565b91506129bf82612958565b604082019050919050565b600060208201905081810360008301526129e3816129a7565b9050919050565b7f4552433732313a207472616e7366657220746f206e6f6e20455243373231526560008201527f63656976657220696d706c656d656e7465720000000000000000000000000000602082015250565b6000612a46603283611beb565b9150612a51826129ea565b604082019050919050565b60006020820190508181036000830152612a7581612a39565b9050919050565b7f4552433732314d657461646174613a2055524920717565727920666f72206e6f60008201527f6e6578697374656e7420746f6b656e0000000000000000000000000000000000602082015250565b6000612ad8602f83611beb565b9150612ae382612a7c565b604082019050919050565b60006020820190508181036000830152612b0781612acb565b9050919050565b600081519050919050565b600082825260208201905092915050565b6000612b3582612b0e565b612b3f8185612b19565b9350612b4f818560208601611bfc565b612b5881611c2f565b840191505092915050565b6000608082019050612b786000830187611d30565b612b856020830186611d30565b612b926040830185611f97565b8181036060830152612ba48184612b2a565b905095945050505050565b600081519050612bbe81611b51565b92915050565b600060208284031215612bda57612bd9611b1b565b5b6000612be884828501612baf565b91505092915050565b6000612bfc82611c9b565b91507fffffffffffffffffffffffffffffffffffffffffffffffffffffffffffffffff821415612c2f57612c2e61289f565b5b600182019050919050565b7f4e487b7100000000000000000000000000000000000000000000000000000000600052601260045260246000fd5b6000612c7482611c9b565b9150612c7f83611c9b565b925082612c8f57612c8e612c3a565b5b828204905092915050565b6000612ca582611c9b565b9150612cb083611c9b565b925082612cc057612cbf612c3a565b5b828206905092915050565b7f4e487b7100000000000000000000000000000000000000000000000000000000600052603260045260246000fd5b7f4552433732313a206d696e7420746f20746865207a65726f2061646472657373600082015250565b6000612d30602083611beb565b9150612d3b82612cfa565b602082019050919050565b60006020820190508181036000830152612d5f81612d23565b9050919050565b7f4552433732313a20746f6b656e20616c7265616479206d696e74656400000000600082015250565b6000612d9c601c83611beb565b9150612da782612d66565b602082019050919050565b60006020820190508181036000830152612dcb81612d8f565b905091905056fea2646970667358221220ca83c74ad42a09a6d13c178df3d6e895600c9f0987041f0051c89e71a7fffe1364736f6c63430008090033",
  "immutableReferences": {},
  "source": "pragma solidity >=0.8.0;\n\nimport \"@openzeppelin/contracts/token/ERC721/extensions/ERC721URIStorage.sol\";\nimport \"@openzeppelin/contracts/utils/Counters.sol\";\n\ncontract tcg is ERC721URIStorage {\n     // number of all cards existing on contract\n    using Counters for Counters.Counter;\n    Counters.Counter private _tokenIds;\n\n    string baseURI;\n\n    // mapping for cards owned per user\n    mapping(address=>uint[]) public userOwnedCards;\n    mapping(uint=>uint) public cardIndex;\n\n    constructor() public ERC721(\"TradingCard\",\"TCG\") {\n        // IPFS protocol is used to store the metadata of cards\n        _setBaseURI(\"ipfs://\");\n    }\n\n    // mints a new card to msg.sender, emits a Transfer event\n    function createCard(string memory _tokenURI) public returns (uint256) {\n        _tokenIds.increment();\n\n        uint new_id = _tokenIds.current();\n\n        // add to list of owned cards per user\n        userOwnedCards[msg.sender].push(new_id);\n        uint arrLen = userOwnedCards[msg.sender].length;\n        cardIndex[new_id] = arrLen;\n\n        _safeMint(msg.sender, new_id);\n        _setTokenURI(new_id, _tokenURI); \n\n        return new_id;\n    }\n\n    function _setBaseURI(string memory _newURI) internal {\n        baseURI = _newURI;\n    }\n\n    function _baseURI() internal view override returns (string memory)  {\n        return baseURI;\n    }\n}",
  "sourcePath": "/Users/nagaikeigo/Desktop/tcg/contracts/tcg.sol",
  "compiler": {
    "name": "solc",
    "version": "0.8.9+commit.e5eed63a.Emscripten.clang"
  },
  "schemaVersion": "3.4.3",
  "updatedAt": "2021-10-08T05:52:52.368Z",
  "devdoc": {
    "kind": "dev",
    "methods": {
      "approve(address,uint256)": {
        "details": "See {IERC721-approve}."
      },
      "balanceOf(address)": {
        "details": "See {IERC721-balanceOf}."
      },
      "getApproved(uint256)": {
        "details": "See {IERC721-getApproved}."
      },
      "isApprovedForAll(address,address)": {
        "details": "See {IERC721-isApprovedForAll}."
      },
      "name()": {
        "details": "See {IERC721Metadata-name}."
      },
      "ownerOf(uint256)": {
        "details": "See {IERC721-ownerOf}."
      },
      "safeTransferFrom(address,address,uint256)": {
        "details": "See {IERC721-safeTransferFrom}."
      },
      "safeTransferFrom(address,address,uint256,bytes)": {
        "details": "See {IERC721-safeTransferFrom}."
      },
      "setApprovalForAll(address,bool)": {
        "details": "See {IERC721-setApprovalForAll}."
      },
      "supportsInterface(bytes4)": {
        "details": "See {IERC165-supportsInterface}."
      },
      "symbol()": {
        "details": "See {IERC721Metadata-symbol}."
      },
      "tokenURI(uint256)": {
        "details": "See {IERC721Metadata-tokenURI}."
      },
      "transferFrom(address,address,uint256)": {
        "details": "See {IERC721-transferFrom}."
      }
    },
    "version": 1
  },
  "userdoc": {
    "kind": "user",
    "methods": {},
    "version": 1
  }
}