{
  "contractName": "tcg",
  "abi": [
    {
      "inputs": [],
      "stateMutability": "nonpayable",
      "type": "constructor"
    },
    {
      "anonymous": false,
      "inputs": [
        {
          "indexed": true,
          "internalType": "address",
          "name": "owner",
          "type": "address"
        },
        {
          "indexed": true,
          "internalType": "address",
          "name": "approved",
          "type": "address"
        },
        {
          "indexed": true,
          "internalType": "uint256",
          "name": "tokenId",
          "type": "uint256"
        }
      ],
      "name": "Approval",
      "type": "event"
    },
    {
      "anonymous": false,
      "inputs": [
        {
          "indexed": true,
          "internalType": "address",
          "name": "owner",
          "type": "address"
        },
        {
          "indexed": true,
          "internalType": "address",
          "name": "operator",
          "type": "address"
        },
        {
          "indexed": false,
          "internalType": "bool",
          "name": "approved",
          "type": "bool"
        }
      ],
      "name": "ApprovalForAll",
      "type": "event"
    },
    {
      "anonymous": false,
      "inputs": [
        {
          "indexed": true,
          "internalType": "address",
          "name": "from",
          "type": "address"
        },
        {
          "indexed": true,
          "internalType": "address",
          "name": "to",
          "type": "address"
        },
        {
          "indexed": true,
          "internalType": "uint256",
          "name": "tokenId",
          "type": "uint256"
        }
      ],
      "name": "Transfer",
      "type": "event"
    },
    {
      "inputs": [
        {
          "internalType": "address",
          "name": "to",
          "type": "address"
        },
        {
          "internalType": "uint256",
          "name": "tokenId",
          "type": "uint256"
        }
      ],
      "name": "approve",
      "outputs": [],
      "stateMutability": "nonpayable",
      "type": "function"
    },
    {
      "inputs": [
        {
          "internalType": "address",
          "name": "owner",
          "type": "address"
        }
      ],
      "name": "balanceOf",
      "outputs": [
        {
          "internalType": "uint256",
          "name": "",
          "type": "uint256"
        }
      ],
      "stateMutability": "view",
      "type": "function"
    },
    {
      "inputs": [
        {
          "internalType": "uint256",
          "name": "",
          "type": "uint256"
        }
      ],
      "name": "cardIndex",
      "outputs": [
        {
          "internalType": "uint256",
          "name": "",
          "type": "uint256"
        }
      ],
      "stateMutability": "view",
      "type": "function"
    },
    {
      "inputs": [
        {
          "internalType": "uint256",
          "name": "tokenId",
          "type": "uint256"
        }
      ],
      "name": "getApproved",
      "outputs": [
        {
          "internalType": "address",
          "name": "",
          "type": "address"
        }
      ],
      "stateMutability": "view",
      "type": "function"
    },
    {
      "inputs": [
        {
          "internalType": "address",
          "name": "owner",
          "type": "address"
        },
        {
          "internalType": "address",
          "name": "operator",
          "type": "address"
        }
      ],
      "name": "isApprovedForAll",
      "outputs": [
        {
          "internalType": "bool",
          "name": "",
          "type": "bool"
        }
      ],
      "stateMutability": "view",
      "type": "function"
    },
    {
      "inputs": [],
      "name": "name",
      "outputs": [
        {
          "internalType": "string",
          "name": "",
          "type": "string"
        }
      ],
      "stateMutability": "view",
      "type": "function"
    },
    {
      "inputs": [
        {
          "internalType": "uint256",
          "name": "tokenId",
          "type": "uint256"
        }
      ],
      "name": "ownerOf",
      "outputs": [
        {
          "internalType": "address",
          "name": "",
          "type": "address"
        }
      ],
      "stateMutability": "view",
      "type": "function"
    },
    {
      "inputs": [
        {
          "internalType": "address",
          "name": "from",
          "type": "address"
        },
        {
          "internalType": "address",
          "name": "to",
          "type": "address"
        },
        {
          "internalType": "uint256",
          "name": "tokenId",
          "type": "uint256"
        }
      ],
      "name": "safeTransferFrom",
      "outputs": [],
      "stateMutability": "nonpayable",
      "type": "function"
    },
    {
      "inputs": [
        {
          "internalType": "address",
          "name": "from",
          "type": "address"
        },
        {
          "internalType": "address",
          "name": "to",
          "type": "address"
        },
        {
          "internalType": "uint256",
          "name": "tokenId",
          "type": "uint256"
        },
        {
          "internalType": "bytes",
          "name": "_data",
          "type": "bytes"
        }
      ],
      "name": "safeTransferFrom",
      "outputs": [],
      "stateMutability": "nonpayable",
      "type": "function"
    },
    {
      "inputs": [
        {
          "internalType": "address",
          "name": "operator",
          "type": "address"
        },
        {
          "internalType": "bool",
          "name": "approved",
          "type": "bool"
        }
      ],
      "name": "setApprovalForAll",
      "outputs": [],
      "stateMutability": "nonpayable",
      "type": "function"
    },
    {
      "inputs": [
        {
          "internalType": "bytes4",
          "name": "interfaceId",
          "type": "bytes4"
        }
      ],
      "name": "supportsInterface",
      "outputs": [
        {
          "internalType": "bool",
          "name": "",
          "type": "bool"
        }
      ],
      "stateMutability": "view",
      "type": "function"
    },
    {
      "inputs": [],
      "name": "symbol",
      "outputs": [
        {
          "internalType": "string",
          "name": "",
          "type": "string"
        }
      ],
      "stateMutability": "view",
      "type": "function"
    },
    {
      "inputs": [
        {
          "internalType": "uint256",
          "name": "tokenId",
          "type": "uint256"
        }
      ],
      "name": "tokenURI",
      "outputs": [
        {
          "internalType": "string",
          "name": "",
          "type": "string"
        }
      ],
      "stateMutability": "view",
      "type": "function"
    },
    {
      "inputs": [
        {
          "internalType": "address",
          "name": "from",
          "type": "address"
        },
        {
          "internalType": "address",
          "name": "to",
          "type": "address"
        },
        {
          "internalType": "uint256",
          "name": "tokenId",
          "type": "uint256"
        }
      ],
      "name": "transferFrom",
      "outputs": [],
      "stateMutability": "nonpayable",
      "type": "function"
    },
    {
      "inputs": [
        {
          "internalType": "address",
          "name": "",
          "type": "address"
        },
        {
          "internalType": "uint256",
          "name": "",
          "type": "uint256"
        }
      ],
      "name": "userOwnedCards",
      "outputs": [
        {
          "internalType": "uint256",
          "name": "",
          "type": "uint256"
        }
      ],
      "stateMutability": "view",
      "type": "function"
    },
    {
      "inputs": [
        {
          "internalType": "string",
          "name": "_tokenURI",
          "type": "string"
        }
      ],
      "name": "createCard",
      "outputs": [
        {
          "internalType": "uint256",
          "name": "",
          "type": "uint256"
        }
      ],
      "stateMutability": "nonpayable",
      "type": "function"
    },
    {
      "inputs": [],
      "name": "getTokenURIs",
      "outputs": [
        {
          "internalType": "uint256[]",
          "name": "",
          "type": "uint256[]"
        }
      ],
      "stateMutability": "view",
      "type": "function"
    }
  ],
  "bytecode": "0x60806040523480156200001157600080fd5b506040518060400160405280600b81526020017f54726164696e67436172640000000000000000000000000000000000000000008152506040518060400160405280600381526020017f54434700000000000000000000000000000000000000000000000000000000008152508160009080519060200190620000969291906200011a565b508060019080519060200190620000af9291906200011a565b505050620000f86040518060400160405280600781526020017f697066733a2f2f00000000000000000000000000000000000000000000000000815250620000fe60201b60201c565b6200022f565b8060089080519060200190620001169291906200011a565b5050565b8280546200012890620001f9565b90600052602060002090601f0160209004810192826200014c576000855562000198565b82601f106200016757805160ff191683800117855562000198565b8280016001018555821562000198579182015b82811115620001975782518255916020019190600101906200017a565b5b509050620001a79190620001ab565b5090565b5b80821115620001c6576000816000905550600101620001ac565b5090565b7f4e487b7100000000000000000000000000000000000000000000000000000000600052602260045260246000fd5b600060028204905060018216806200021257607f821691505b60208210811415620002295762000228620001ca565b5b50919050565b612fa6806200023f6000396000f3fe608060405234801561001057600080fd5b506004361061010b5760003560e01c806370a08231116100a2578063b6d3564b11610071578063b6d3564b146102dc578063b88d4fde146102fa578063c87b56dd14610316578063ca89f4e414610346578063e985e9c5146103765761010b565b806370a082311461024257806395d89b41146102725780639b3ce46e14610290578063a22cb465146102c05761010b565b806323b872dd116100de57806323b872dd146101aa57806342842e0e146101c657806346a672bd146101e25780636352211e146102125761010b565b806301ffc9a71461011057806306fdde0314610140578063081812fc1461015e578063095ea7b31461018e575b600080fd5b61012a60048036038101906101259190611c3b565b6103a6565b6040516101379190611c83565b60405180910390f35b610148610488565b6040516101559190611d37565b60405180910390f35b61017860048036038101906101739190611d8f565b61051a565b6040516101859190611dfd565b60405180910390f35b6101a860048036038101906101a39190611e44565b61059f565b005b6101c460048036038101906101bf9190611e84565b6106b7565b005b6101e060048036038101906101db9190611e84565b610717565b005b6101fc60048036038101906101f7919061200c565b610737565b6040516102099190612064565b60405180910390f35b61022c60048036038101906102279190611d8f565b610834565b6040516102399190611dfd565b60405180910390f35b61025c6004803603810190610257919061207f565b6108e6565b6040516102699190612064565b60405180910390f35b61027a61099e565b6040516102879190611d37565b60405180910390f35b6102aa60048036038101906102a59190611e44565b610a30565b6040516102b79190612064565b60405180910390f35b6102da60048036038101906102d591906120d8565b610a61565b005b6102e4610be2565b6040516102f191906121d6565b60405180910390f35b610314600480360381019061030f9190612299565b610c77565b005b610330600480360381019061032b9190611d8f565b610cd9565b60405161033d9190611d37565b60405180910390f35b610360600480360381019061035b9190611d8f565b610e2b565b60405161036d9190612064565b60405180910390f35b610390600480360381019061038b919061231c565b610e43565b60405161039d9190611c83565b60405180910390f35b60007f80ac58cd000000000000000000000000000000000000000000000000000000007bffffffffffffffffffffffffffffffffffffffffffffffffffffffff1916827bffffffffffffffffffffffffffffffffffffffffffffffffffffffff1916148061047157507f5b5e139f000000000000000000000000000000000000000000000000000000007bffffffffffffffffffffffffffffffffffffffffffffffffffffffff1916827bffffffffffffffffffffffffffffffffffffffffffffffffffffffff1916145b80610481575061048082610ed7565b5b9050919050565b6060600080546104979061238b565b80601f01602080910402602001604051908101604052809291908181526020018280546104c39061238b565b80156105105780601f106104e557610100808354040283529160200191610510565b820191906000526020600020905b8154815290600101906020018083116104f357829003601f168201915b5050505050905090565b600061052582610f41565b610564576040517f08c379a000000000000000000000000000000000000000000000000000000000815260040161055b9061242f565b60405180910390fd5b6004600083815260200190815260200160002060009054906101000a900473ffffffffffffffffffffffffffffffffffffffff169050919050565b60006105aa82610834565b90508073ffffffffffffffffffffffffffffffffffffffff168373ffffffffffffffffffffffffffffffffffffffff16141561061b576040517f08c379a0000000000000000000000000000000000000000000000000000000008152600401610612906124c1565b60405180910390fd5b8073ffffffffffffffffffffffffffffffffffffffff1661063a610fad565b73ffffffffffffffffffffffffffffffffffffffff161480610669575061066881610663610fad565b610e43565b5b6106a8576040517f08c379a000000000000000000000000000000000000000000000000000000000815260040161069f90612553565b60405180910390fd5b6106b28383610fb5565b505050565b6106c86106c2610fad565b8261106e565b610707576040517f08c379a00000000000000000000000000000000000000000000000000000000081526004016106fe906125e5565b60405180910390fd5b61071283838361114c565b505050565b61073283838360405180602001604052806000815250610c77565b505050565b600061074360076113a8565b600061074f60076113be565b9050600960003373ffffffffffffffffffffffffffffffffffffffff1673ffffffffffffffffffffffffffffffffffffffff1681526020019081526020016000208190806001815401808255809150506001900390600052602060002001600090919091909150556000600960003373ffffffffffffffffffffffffffffffffffffffff1673ffffffffffffffffffffffffffffffffffffffff16815260200190815260200160002080549050905080600a60008481526020019081526020016000208190555061082033836113cc565b61082a82856113ea565b8192505050919050565b6000806002600084815260200190815260200160002060009054906101000a900473ffffffffffffffffffffffffffffffffffffffff169050600073ffffffffffffffffffffffffffffffffffffffff168173ffffffffffffffffffffffffffffffffffffffff1614156108dd576040517f08c379a00000000000000000000000000000000000000000000000000000000081526004016108d490612677565b60405180910390fd5b80915050919050565b60008073ffffffffffffffffffffffffffffffffffffffff168273ffffffffffffffffffffffffffffffffffffffff161415610957576040517f08c379a000000000000000000000000000000000000000000000000000000000815260040161094e90612709565b60405180910390fd5b600360008373ffffffffffffffffffffffffffffffffffffffff1673ffffffffffffffffffffffffffffffffffffffff168152602001908152602001600020549050919050565b6060600180546109ad9061238b565b80601f01602080910402602001604051908101604052809291908181526020018280546109d99061238b565b8015610a265780601f106109fb57610100808354040283529160200191610a26565b820191906000526020600020905b815481529060010190602001808311610a0957829003601f168201915b5050505050905090565b60096020528160005260406000208181548110610a4c57600080fd5b90600052602060002001600091509150505481565b610a69610fad565b73ffffffffffffffffffffffffffffffffffffffff168273ffffffffffffffffffffffffffffffffffffffff161415610ad7576040517f08c379a0000000000000000000000000000000000000000000000000000000008152600401610ace90612775565b60405180910390fd5b8060056000610ae4610fad565b73ffffffffffffffffffffffffffffffffffffffff1673ffffffffffffffffffffffffffffffffffffffff16815260200190815260200160002060008473ffffffffffffffffffffffffffffffffffffffff1673ffffffffffffffffffffffffffffffffffffffff16815260200190815260200160002060006101000a81548160ff0219169083151502179055508173ffffffffffffffffffffffffffffffffffffffff16610b91610fad565b73ffffffffffffffffffffffffffffffffffffffff167f17307eab39ab6107e8899845ad3d59bd9653f200f220920489ca2b5937696c3183604051610bd69190611c83565b60405180910390a35050565b6060600960003373ffffffffffffffffffffffffffffffffffffffff1673ffffffffffffffffffffffffffffffffffffffff168152602001908152602001600020805480602002602001604051908101604052809291908181526020018280548015610c6d57602002820191906000526020600020905b815481526020019060010190808311610c59575b5050505050905090565b610c88610c82610fad565b8361106e565b610cc7576040517f08c379a0000000000000000000000000000000000000000000000000000000008152600401610cbe906125e5565b60405180910390fd5b610cd38484848461145e565b50505050565b6060610ce482610f41565b610d23576040517f08c379a0000000000000000000000000000000000000000000000000000000008152600401610d1a90612807565b60405180910390fd5b6000600660008481526020019081526020016000208054610d439061238b565b80601f0160208091040260200160405190810160405280929190818152602001828054610d6f9061238b565b8015610dbc5780601f10610d9157610100808354040283529160200191610dbc565b820191906000526020600020905b815481529060010190602001808311610d9f57829003601f168201915b505050505090506000610dcd6114ba565b9050600081511415610de3578192505050610e26565b600082511115610e18578082604051602001610e00929190612863565b60405160208183030381529060405292505050610e26565b610e218461154c565b925050505b919050565b600a6020528060005260406000206000915090505481565b6000600560008473ffffffffffffffffffffffffffffffffffffffff1673ffffffffffffffffffffffffffffffffffffffff16815260200190815260200160002060008373ffffffffffffffffffffffffffffffffffffffff1673ffffffffffffffffffffffffffffffffffffffff16815260200190815260200160002060009054906101000a900460ff16905092915050565b60007f01ffc9a7000000000000000000000000000000000000000000000000000000007bffffffffffffffffffffffffffffffffffffffffffffffffffffffff1916827bffffffffffffffffffffffffffffffffffffffffffffffffffffffff1916149050919050565b60008073ffffffffffffffffffffffffffffffffffffffff166002600084815260200190815260200160002060009054906101000a900473ffffffffffffffffffffffffffffffffffffffff1673ffffffffffffffffffffffffffffffffffffffff1614159050919050565b600033905090565b816004600083815260200190815260200160002060006101000a81548173ffffffffffffffffffffffffffffffffffffffff021916908373ffffffffffffffffffffffffffffffffffffffff160217905550808273ffffffffffffffffffffffffffffffffffffffff1661102883610834565b73ffffffffffffffffffffffffffffffffffffffff167f8c5be1e5ebec7d5bd14f71427d1e84f3dd0314c0f7b2291e5b200ac8c7c3b92560405160405180910390a45050565b600061107982610f41565b6110b8576040517f08c379a00000000000000000000000000000000000000000000000000000000081526004016110af906128f9565b60405180910390fd5b60006110c383610834565b90508073ffffffffffffffffffffffffffffffffffffffff168473ffffffffffffffffffffffffffffffffffffffff16148061113257508373ffffffffffffffffffffffffffffffffffffffff1661111a8461051a565b73ffffffffffffffffffffffffffffffffffffffff16145b8061114357506111428185610e43565b5b91505092915050565b8273ffffffffffffffffffffffffffffffffffffffff1661116c82610834565b73ffffffffffffffffffffffffffffffffffffffff16146111c2576040517f08c379a00000000000000000000000000000000000000000000000000000000081526004016111b99061298b565b60405180910390fd5b600073ffffffffffffffffffffffffffffffffffffffff168273ffffffffffffffffffffffffffffffffffffffff161415611232576040517f08c379a000000000000000000000000000000000000000000000000000000000815260040161122990612a1d565b60405180910390fd5b61123d8383836115f3565b611248600082610fb5565b6001600360008573ffffffffffffffffffffffffffffffffffffffff1673ffffffffffffffffffffffffffffffffffffffff16815260200190815260200160002060008282546112989190612a6c565b925050819055506001600360008473ffffffffffffffffffffffffffffffffffffffff1673ffffffffffffffffffffffffffffffffffffffff16815260200190815260200160002060008282546112ef9190612aa0565b92505081905550816002600083815260200190815260200160002060006101000a81548173ffffffffffffffffffffffffffffffffffffffff021916908373ffffffffffffffffffffffffffffffffffffffff160217905550808273ffffffffffffffffffffffffffffffffffffffff168473ffffffffffffffffffffffffffffffffffffffff167fddf252ad1be2c89b69c2b068fc378daa952ba7f163c4a11628f55a4df523b3ef60405160405180910390a4505050565b6001816000016000828254019250508190555050565b600081600001549050919050565b6113e68282604051806020016040528060008152506115f8565b5050565b6113f382610f41565b611432576040517f08c379a000000000000000000000000000000000000000000000000000000000815260040161142990612b68565b60405180910390fd5b80600660008481526020019081526020016000209080519060200190611459929190611b2c565b505050565b61146984848461114c565b61147584848484611653565b6114b4576040517f08c379a00000000000000000000000000000000000000000000000000000000081526004016114ab90612bfa565b60405180910390fd5b50505050565b6060600880546114c99061238b565b80601f01602080910402602001604051908101604052809291908181526020018280546114f59061238b565b80156115425780601f1061151757610100808354040283529160200191611542565b820191906000526020600020905b81548152906001019060200180831161152557829003601f168201915b5050505050905090565b606061155782610f41565b611596576040517f08c379a000000000000000000000000000000000000000000000000000000000815260040161158d90612c8c565b60405180910390fd5b60006115a06114ba565b905060008151116115c057604051806020016040528060008152506115eb565b806115ca846117ea565b6040516020016115db929190612863565b6040516020818303038152906040525b915050919050565b505050565b611602838361194b565b61160f6000848484611653565b61164e576040517f08c379a000000000000000000000000000000000000000000000000000000000815260040161164590612bfa565b60405180910390fd5b505050565b60006116748473ffffffffffffffffffffffffffffffffffffffff16611b19565b156117dd578373ffffffffffffffffffffffffffffffffffffffff1663150b7a0261169d610fad565b8786866040518563ffffffff1660e01b81526004016116bf9493929190612d01565b602060405180830381600087803b1580156116d957600080fd5b505af192505050801561170a57506040513d601f19601f820116820180604052508101906117079190612d62565b60015b61178d573d806000811461173a576040519150601f19603f3d011682016040523d82523d6000602084013e61173f565b606091505b50600081511415611785576040517f08c379a000000000000000000000000000000000000000000000000000000000815260040161177c90612bfa565b60405180910390fd5b805181602001fd5b63150b7a0260e01b7bffffffffffffffffffffffffffffffffffffffffffffffffffffffff1916817bffffffffffffffffffffffffffffffffffffffffffffffffffffffff1916149150506117e2565b600190505b949350505050565b60606000821415611832576040518060400160405280600181526020017f30000000000000000000000000000000000000000000000000000000000000008152509050611946565b600082905060005b6000821461186457808061184d90612d8f565b915050600a8261185d9190612e07565b915061183a565b60008167ffffffffffffffff8111156118805761187f611ee1565b5b6040519080825280601f01601f1916602001820160405280156118b25781602001600182028036833780820191505090505b5090505b6000851461193f576001826118cb9190612a6c565b9150600a856118da9190612e38565b60306118e69190612aa0565b60f81b8183815181106118fc576118fb612e69565b5b60200101907effffffffffffffffffffffffffffffffffffffffffffffffffffffffffffff1916908160001a905350600a856119389190612e07565b94506118b6565b8093505050505b919050565b600073ffffffffffffffffffffffffffffffffffffffff168273ffffffffffffffffffffffffffffffffffffffff1614156119bb576040517f08c379a00000000000000000000000000000000000000000000000000000000081526004016119b290612ee4565b60405180910390fd5b6119c481610f41565b15611a04576040517f08c379a00000000000000000000000000000000000000000000000000000000081526004016119fb90612f50565b60405180910390fd5b611a10600083836115f3565b6001600360008473ffffffffffffffffffffffffffffffffffffffff1673ffffffffffffffffffffffffffffffffffffffff1681526020019081526020016000206000828254611a609190612aa0565b92505081905550816002600083815260200190815260200160002060006101000a81548173ffffffffffffffffffffffffffffffffffffffff021916908373ffffffffffffffffffffffffffffffffffffffff160217905550808273ffffffffffffffffffffffffffffffffffffffff16600073ffffffffffffffffffffffffffffffffffffffff167fddf252ad1be2c89b69c2b068fc378daa952ba7f163c4a11628f55a4df523b3ef60405160405180910390a45050565b600080823b905060008111915050919050565b828054611b389061238b565b90600052602060002090601f016020900481019282611b5a5760008555611ba1565b82601f10611b7357805160ff1916838001178555611ba1565b82800160010185558215611ba1579182015b82811115611ba0578251825591602001919060010190611b85565b5b509050611bae9190611bb2565b5090565b5b80821115611bcb576000816000905550600101611bb3565b5090565b6000604051905090565b600080fd5b600080fd5b60007fffffffff0000000000000000000000000000000000000000000000000000000082169050919050565b611c1881611be3565b8114611c2357600080fd5b50565b600081359050611c3581611c0f565b92915050565b600060208284031215611c5157611c50611bd9565b5b6000611c5f84828501611c26565b91505092915050565b60008115159050919050565b611c7d81611c68565b82525050565b6000602082019050611c986000830184611c74565b92915050565b600081519050919050565b600082825260208201905092915050565b60005b83811015611cd8578082015181840152602081019050611cbd565b83811115611ce7576000848401525b50505050565b6000601f19601f8301169050919050565b6000611d0982611c9e565b611d138185611ca9565b9350611d23818560208601611cba565b611d2c81611ced565b840191505092915050565b60006020820190508181036000830152611d518184611cfe565b905092915050565b6000819050919050565b611d6c81611d59565b8114611d7757600080fd5b50565b600081359050611d8981611d63565b92915050565b600060208284031215611da557611da4611bd9565b5b6000611db384828501611d7a565b91505092915050565b600073ffffffffffffffffffffffffffffffffffffffff82169050919050565b6000611de782611dbc565b9050919050565b611df781611ddc565b82525050565b6000602082019050611e126000830184611dee565b92915050565b611e2181611ddc565b8114611e2c57600080fd5b50565b600081359050611e3e81611e18565b92915050565b60008060408385031215611e5b57611e5a611bd9565b5b6000611e6985828601611e2f565b9250506020611e7a85828601611d7a565b9150509250929050565b600080600060608486031215611e9d57611e9c611bd9565b5b6000611eab86828701611e2f565b9350506020611ebc86828701611e2f565b9250506040611ecd86828701611d7a565b9150509250925092565b600080fd5b600080fd5b7f4e487b7100000000000000000000000000000000000000000000000000000000600052604160045260246000fd5b611f1982611ced565b810181811067ffffffffffffffff82111715611f3857611f37611ee1565b5b80604052505050565b6000611f4b611bcf565b9050611f578282611f10565b919050565b600067ffffffffffffffff821115611f7757611f76611ee1565b5b611f8082611ced565b9050602081019050919050565b82818337600083830152505050565b6000611faf611faa84611f5c565b611f41565b905082815260208101848484011115611fcb57611fca611edc565b5b611fd6848285611f8d565b509392505050565b600082601f830112611ff357611ff2611ed7565b5b8135612003848260208601611f9c565b91505092915050565b60006020828403121561202257612021611bd9565b5b600082013567ffffffffffffffff8111156120405761203f611bde565b5b61204c84828501611fde565b91505092915050565b61205e81611d59565b82525050565b60006020820190506120796000830184612055565b92915050565b60006020828403121561209557612094611bd9565b5b60006120a384828501611e2f565b91505092915050565b6120b581611c68565b81146120c057600080fd5b50565b6000813590506120d2816120ac565b92915050565b600080604083850312156120ef576120ee611bd9565b5b60006120fd85828601611e2f565b925050602061210e858286016120c3565b9150509250929050565b600081519050919050565b600082825260208201905092915050565b6000819050602082019050919050565b61214d81611d59565b82525050565b600061215f8383612144565b60208301905092915050565b6000602082019050919050565b600061218382612118565b61218d8185612123565b935061219883612134565b8060005b838110156121c95781516121b08882612153565b97506121bb8361216b565b92505060018101905061219c565b5085935050505092915050565b600060208201905081810360008301526121f08184612178565b905092915050565b600067ffffffffffffffff82111561221357612212611ee1565b5b61221c82611ced565b9050602081019050919050565b600061223c612237846121f8565b611f41565b90508281526020810184848401111561225857612257611edc565b5b612263848285611f8d565b509392505050565b600082601f8301126122805761227f611ed7565b5b8135612290848260208601612229565b91505092915050565b600080600080608085870312156122b3576122b2611bd9565b5b60006122c187828801611e2f565b94505060206122d287828801611e2f565b93505060406122e387828801611d7a565b925050606085013567ffffffffffffffff81111561230457612303611bde565b5b6123108782880161226b565b91505092959194509250565b6000806040838503121561233357612332611bd9565b5b600061234185828601611e2f565b925050602061235285828601611e2f565b9150509250929050565b7f4e487b7100000000000000000000000000000000000000000000000000000000600052602260045260246000fd5b600060028204905060018216806123a357607f821691505b602082108114156123b7576123b661235c565b5b50919050565b7f4552433732313a20617070726f76656420717565727920666f72206e6f6e657860008201527f697374656e7420746f6b656e0000000000000000000000000000000000000000602082015250565b6000612419602c83611ca9565b9150612424826123bd565b604082019050919050565b600060208201905081810360008301526124488161240c565b9050919050565b7f4552433732313a20617070726f76616c20746f2063757272656e74206f776e6560008201527f7200000000000000000000000000000000000000000000000000000000000000602082015250565b60006124ab602183611ca9565b91506124b68261244f565b604082019050919050565b600060208201905081810360008301526124da8161249e565b9050919050565b7f4552433732313a20617070726f76652063616c6c6572206973206e6f74206f7760008201527f6e6572206e6f7220617070726f76656420666f7220616c6c0000000000000000602082015250565b600061253d603883611ca9565b9150612548826124e1565b604082019050919050565b6000602082019050818103600083015261256c81612530565b9050919050565b7f4552433732313a207472616e736665722063616c6c6572206973206e6f74206f60008201527f776e6572206e6f7220617070726f766564000000000000000000000000000000602082015250565b60006125cf603183611ca9565b91506125da82612573565b604082019050919050565b600060208201905081810360008301526125fe816125c2565b9050919050565b7f4552433732313a206f776e657220717565727920666f72206e6f6e657869737460008201527f656e7420746f6b656e0000000000000000000000000000000000000000000000602082015250565b6000612661602983611ca9565b915061266c82612605565b604082019050919050565b6000602082019050818103600083015261269081612654565b9050919050565b7f4552433732313a2062616c616e636520717565727920666f7220746865207a6560008201527f726f206164647265737300000000000000000000000000000000000000000000602082015250565b60006126f3602a83611ca9565b91506126fe82612697565b604082019050919050565b60006020820190508181036000830152612722816126e6565b9050919050565b7f4552433732313a20617070726f766520746f2063616c6c657200000000000000600082015250565b600061275f601983611ca9565b915061276a82612729565b602082019050919050565b6000602082019050818103600083015261278e81612752565b9050919050565b7f45524337323155524953746f726167653a2055524920717565727920666f722060008201527f6e6f6e6578697374656e7420746f6b656e000000000000000000000000000000602082015250565b60006127f1603183611ca9565b91506127fc82612795565b604082019050919050565b60006020820190508181036000830152612820816127e4565b9050919050565b600081905092915050565b600061283d82611c9e565b6128478185612827565b9350612857818560208601611cba565b80840191505092915050565b600061286f8285612832565b915061287b8284612832565b91508190509392505050565b7f4552433732313a206f70657261746f7220717565727920666f72206e6f6e657860008201527f697374656e7420746f6b656e0000000000000000000000000000000000000000602082015250565b60006128e3602c83611ca9565b91506128ee82612887565b604082019050919050565b60006020820190508181036000830152612912816128d6565b9050919050565b7f4552433732313a207472616e73666572206f6620746f6b656e2074686174206960008201527f73206e6f74206f776e0000000000000000000000000000000000000000000000602082015250565b6000612975602983611ca9565b915061298082612919565b604082019050919050565b600060208201905081810360008301526129a481612968565b9050919050565b7f4552433732313a207472616e7366657220746f20746865207a65726f2061646460008201527f7265737300000000000000000000000000000000000000000000000000000000602082015250565b6000612a07602483611ca9565b9150612a12826129ab565b604082019050919050565b60006020820190508181036000830152612a36816129fa565b9050919050565b7f4e487b7100000000000000000000000000000000000000000000000000000000600052601160045260246000fd5b6000612a7782611d59565b9150612a8283611d59565b925082821015612a9557612a94612a3d565b5b828203905092915050565b6000612aab82611d59565b9150612ab683611d59565b9250827fffffffffffffffffffffffffffffffffffffffffffffffffffffffffffffffff03821115612aeb57612aea612a3d565b5b828201905092915050565b7f45524337323155524953746f726167653a2055524920736574206f66206e6f6e60008201527f6578697374656e7420746f6b656e000000000000000000000000000000000000602082015250565b6000612b52602e83611ca9565b9150612b5d82612af6565b604082019050919050565b60006020820190508181036000830152612b8181612b45565b9050919050565b7f4552433732313a207472616e7366657220746f206e6f6e20455243373231526560008201527f63656976657220696d706c656d656e7465720000000000000000000000000000602082015250565b6000612be4603283611ca9565b9150612bef82612b88565b604082019050919050565b60006020820190508181036000830152612c1381612bd7565b9050919050565b7f4552433732314d657461646174613a2055524920717565727920666f72206e6f60008201527f6e6578697374656e7420746f6b656e0000000000000000000000000000000000602082015250565b6000612c76602f83611ca9565b9150612c8182612c1a565b604082019050919050565b60006020820190508181036000830152612ca581612c69565b9050919050565b600081519050919050565b600082825260208201905092915050565b6000612cd382612cac565b612cdd8185612cb7565b9350612ced818560208601611cba565b612cf681611ced565b840191505092915050565b6000608082019050612d166000830187611dee565b612d236020830186611dee565b612d306040830185612055565b8181036060830152612d428184612cc8565b905095945050505050565b600081519050612d5c81611c0f565b92915050565b600060208284031215612d7857612d77611bd9565b5b6000612d8684828501612d4d565b91505092915050565b6000612d9a82611d59565b91507fffffffffffffffffffffffffffffffffffffffffffffffffffffffffffffffff821415612dcd57612dcc612a3d565b5b600182019050919050565b7f4e487b7100000000000000000000000000000000000000000000000000000000600052601260045260246000fd5b6000612e1282611d59565b9150612e1d83611d59565b925082612e2d57612e2c612dd8565b5b828204905092915050565b6000612e4382611d59565b9150612e4e83611d59565b925082612e5e57612e5d612dd8565b5b828206905092915050565b7f4e487b7100000000000000000000000000000000000000000000000000000000600052603260045260246000fd5b7f4552433732313a206d696e7420746f20746865207a65726f2061646472657373600082015250565b6000612ece602083611ca9565b9150612ed982612e98565b602082019050919050565b60006020820190508181036000830152612efd81612ec1565b9050919050565b7f4552433732313a20746f6b656e20616c7265616479206d696e74656400000000600082015250565b6000612f3a601c83611ca9565b9150612f4582612f04565b602082019050919050565b60006020820190508181036000830152612f6981612f2d565b905091905056fea264697066735822122031f497feff086bbd96a2bf6c3ac4b2370d4e956c5750baa8d92a1f2645deb69864736f6c63430008090033",
  "immutableReferences": {},
  "source": "pragma solidity >=0.8.0;\n\nimport \"@openzeppelin/contracts/token/ERC721/extensions/ERC721URIStorage.sol\";\nimport \"@openzeppelin/contracts/utils/Counters.sol\";\n\ncontract tcg is ERC721URIStorage {\n     // number of all cards existing on contract\n    using Counters for Counters.Counter;\n    Counters.Counter private _tokenIds;\n\n    string baseURI;\n\n    // mapping for cards owned per user\n    mapping(address=>uint[]) public userOwnedCards;\n    mapping(uint=>uint) public cardIndex;\n\n    constructor() public ERC721(\"TradingCard\",\"TCG\") {\n        // IPFS protocol is used to store the metadata of cards\n        _setBaseURI(\"ipfs://\");\n    }\n\n    // mints a new card to msg.sender, emits a Transfer event\n    function createCard(string memory _tokenURI) public returns (uint256) {\n        _tokenIds.increment();\n\n        uint new_id = _tokenIds.current();\n\n        // add to list of owned cards per user\n        userOwnedCards[msg.sender].push(new_id);\n        uint arrLen = userOwnedCards[msg.sender].length;\n        cardIndex[new_id] = arrLen;\n\n        _safeMint(msg.sender, new_id);\n        _setTokenURI(new_id, _tokenURI); \n\n        return new_id;\n    }\n\n    function _setBaseURI(string memory _newBaseURI) internal {\n        baseURI = _newBaseURI;\n    }\n\n    function _baseURI() internal view override returns (string memory)  {\n        return baseURI;\n    }\n\n    // returns the URIs of all the tokens msg.sender owns\n    function getTokenURIs() external view returns(uint[] memory) {\n        return userOwnedCards[msg.sender];\n    }\n}",
  "sourcePath": "/Users/nagaikeigo/Desktop/tcg/contracts/tcg.sol",
  "compiler": {
    "name": "solc",
    "version": "0.8.9+commit.e5eed63a.Emscripten.clang"
  },
  "schemaVersion": "3.4.3",
  "updatedAt": "2021-10-09T02:51:04.217Z",
  "devdoc": {
    "kind": "dev",
    "methods": {
      "approve(address,uint256)": {
        "details": "See {IERC721-approve}."
      },
      "balanceOf(address)": {
        "details": "See {IERC721-balanceOf}."
      },
      "getApproved(uint256)": {
        "details": "See {IERC721-getApproved}."
      },
      "isApprovedForAll(address,address)": {
        "details": "See {IERC721-isApprovedForAll}."
      },
      "name()": {
        "details": "See {IERC721Metadata-name}."
      },
      "ownerOf(uint256)": {
        "details": "See {IERC721-ownerOf}."
      },
      "safeTransferFrom(address,address,uint256)": {
        "details": "See {IERC721-safeTransferFrom}."
      },
      "safeTransferFrom(address,address,uint256,bytes)": {
        "details": "See {IERC721-safeTransferFrom}."
      },
      "setApprovalForAll(address,bool)": {
        "details": "See {IERC721-setApprovalForAll}."
      },
      "supportsInterface(bytes4)": {
        "details": "See {IERC165-supportsInterface}."
      },
      "symbol()": {
        "details": "See {IERC721Metadata-symbol}."
      },
      "tokenURI(uint256)": {
        "details": "See {IERC721Metadata-tokenURI}."
      },
      "transferFrom(address,address,uint256)": {
        "details": "See {IERC721-transferFrom}."
      }
    },
    "version": 1
  },
  "userdoc": {
    "kind": "user",
    "methods": {},
    "version": 1
  }
}